:020000040800F2
:10000000000002206D0C0008190B0008210B0008ED
:10001000290B0008310B0008390B00080000000014
:10002000000000000000000000000000410B00087C
:100030004F0B0008000000005D0B00086B0B000870
:10004000BD0C0008BD0C0008BD0C0008BD0C00086C
:10005000BD0C0008BD0C0008BD0C0008BD0C00085C
:10006000BD0C0008BD0C0008BD0C0008BD0C00084C
:10007000BD0C0008BD0C0008BD0C0008BD0C00083C
:10008000BD0C0008BD0C0008BD0C0008BD0C00082C
:10009000BD0C0008BD0C0008BD0C0008BD0C00081C
:1000A000BD0C0008BD0C0008BD0C0008BD0C00080C
:1000B000BD0C0008BD0C0008BD0C0008790B000841
:1000C0008D0B0008A10B0008B50B0008BD0C000843
:1000D000BD0C0008C90B0008BD0C0008BD0C0008D1
:1000E000BD0C0008BD0C0008BD0C0008BD0C0008CC
:1000F000BD0C0008BD0C0008BD0C0008BD0C0008BC
:10010000BD0C0008BD0C0008BD0C0008BD0C0008AB
:10011000BD0C0008BD0C0008BD0C0008BD0C00089B
:10012000BD0C0008BD0C0008BD0C0008BD0C00088B
:10013000BD0C0008BD0C0008BD0C0008BD0C00087B
:10014000BD0C0008BD0C0008BD0C0008BD0C00086B
:10015000BD0C0008BD0C0008BD0C0008BD0C00085B
:10016000BD0C0008BD0C0008BD0C0008BD0C00084B
:10017000BD0C0008BD0C0008BD0C0008000000000C
:08018000BD0C0008BD0C0008D5
:1001900010B5054C237833B9044B13B10448AFF3C1
:1001A00000800123237010BD6400002000000000C7
:1001B000005B000808B5034B1BB103490348AFF3CC
:1001C000008008BD0000000068000020005B0008FF
:1001D000034613F8012B002AFBD1181A0138704787
:1001E00001F0FF01102A2BDB10F0070F08D010F8E8
:1001F000013B013A8B422DD010F0070F42B3F6D1EC
:10020000F0B441EA012141EA014122F007047FF004
:1002100000070023F0E80256083C85EA010586EA5B
:10022000010685FA47F5A3FA87F586FA47F6A5FA97
:1002300087F68EB9EED1F0BC01F0FF0102F00702A3
:1002400032B110F8013B013A83EA010313B1F8D14E
:100250000020704701387047002D06BF354603382F
:10026000073815F0010F07D1013015F4807F02BF68
:10027000013015F4C03F0130F0BC0138704700BFB9
:1002800053B94AB9002908BF00281CBF4FF0FF31FD
:100290004FF0FF3000F088B9ADF1080C6DE904CEE5
:1002A00000F006F8DDF804E0DDE9022304B0704751
:1002B0002DE9F047089D8E4604468846002B4AD11A
:1002C0008A42174662D9B2FA82F64EB1C6F12003CD
:1002D00001FA06F820FA03F3B74043EA0808B440ED
:1002E0004FEA174E1FFA87FCB8FBFEF1230C0EFBFA
:1002F000118843EA084301FB0CF29A4209D9FB1822
:1003000001F1FF3080F0EA809A4240F2E780023942
:100310003B449A1AA3B2B2FBFEF00EFB102243EA52
:10032000024300FB0CFC9C4509D9FB1800F1FF328D
:1003300080F0D6809C4540F2D3803B44023840EAAE
:100340000140A3EB0C0300211DB1F3400022C5E9DD
:100350000032BDE8F0878B4205D90DB1C5E9000137
:1003600000210846F5E7B3FA83F1002946D1734529
:1003700002D3824200F20581841A6EEB030201204F
:100380009046002DE5D0C5E90048E2E7002A00F0DC
:100390009080B2FA82F6002E40F0A4808A1A030CF4
:1003A0004FEA174E80B2BCB20121B2FBFEFC0EFB3D
:1003B0001C2243EA024304FB0CF29A4207D9FB18C1
:1003C0000CF1FF3802D29A4200F2E080C4469B1A38
:1003D000B3FBFEF20EFB123340EA034302FB04F4CC
:1003E0009C4207D9FB1802F1FF3002D29C4200F276
:1003F000CA8002461B1B42EA0C40A5E7C1F1200659
:100400008B4022FA06F71F430EFA01F420FA06F396
:100410002EFA06FE4FEA1749234300FA01F81FFAA5
:1004200087FCBEFBF9F01C0C09FB10EE44EA0E44FD
:1004300000FB0CFEA64502FA01F209D93C1900F1B5
:10044000FF3A80F09C80A64540F2998002383C44F7
:10045000A4EB0E041FFA83FEB4FBF9F309FB13446B
:100460004EEA044403FB0CFCA44508D93C1903F1F3
:10047000FF3E80F08280A4457FD9023B3C4443EAA2
:100480000040A4EB0C04A0FB02EC64457346E1467B
:1004900062D35FD05DB1B8EB030264EB090404FAE8
:1004A00006F622FA01F31E43CC40C5E900640021A0
:1004B0004FE7B1FBF2FC010C41EA0E4180B240EA89
:1004C00001423B4638463C46B846BE462026B1FB74
:1004D000F7F1A2EB080241EA0C4166E7014618E792
:1004E00010462CE7C6F120022EFA02F3B740B140C5
:1004F00020FA02F24FEA174E0A43B3FBFEF8BCB2F1
:100500000EFB1833110C41EA034108FB04F9B0401B
:1005100089454FEA104380B23ED9791808F1FF3C73
:1005200001D289451FD8A1EB0901B1FBFEF909FBF6
:1005300004F80EFB191192B242EA0142424529D257
:10054000BA1809F1FF31C4D24245C2D2A9F1020161
:100550003A44BEE7F0459DD2BEEB02036CEB070CBC
:100560000138E14696E7A7EB09094944A8F1020CD6
:10057000B1FBFEF909FB04F8DBE773467FE7504661
:1005800066E70846FDE63B44023A33E7ACF1020C6D
:100590003B441CE749469CE7A1EB0901C446B1FB7B
:1005A000FEF909FB04F8C4E7704700BF80B582B0CC
:1005B00002AF00F085FB00F06FF800F05DF900F08D
:1005C000D5F800F001F900F02DF905220B490C488F
:1005D00001F08EF903461A460A4B1A704FF0FF33AA
:1005E00000930523084A4021084801F083F8034698
:1005F0001A46074B1A7000BFFDE700BF70010020CC
:10060000D40000207601002000000020800000209F
:1006100075010020B0B596B004AF78607B681B68A8
:10062000184A93422AD1184B1B781C46164B5B780C
:100630001D46154B9B781A46134BDB781946124B17
:100640001B7907F108000293019100922B46224684
:100650000E4904F0B5FD07F108031846FFF7B8FD91
:1006600003469AB207F108014FF0FF33084803F040
:10067000DFFD05220449074801F03AF900BF483779
:10068000BD46B0BD0058004070010020185B000856
:1006900028010020D400002080B594B000AF07F1FD
:1006A000200330220021184604F0ACFD07F10C03B2
:1006B00000221A605A609A60DA601A610023BB60F7
:1006C000284B1B6C274A43F080531364254B1B6C4B
:1006D00003F08053BB60BB6800237B60224B1B6828
:1006E000214A43F4804313601F4B1B6803F480438B
:1006F0007B607B6802233B620123FB6210233B6328
:100700000223BB630023FB6308233B64A8237B64B1
:100710000223BB640423FB6407F12003184603F0A3
:100720009FF80346002B01D000F0DCF80F23FB609C
:1007300002233B6100237B614FF4A053BB614FF464
:100740008053FB6107F10C030521184603F000FB01
:100750000346002B01D000F0C5F800BF5037BD465E
:1007600080BD00BF003802400070004080B500AF7F
:10077000124B134A1A60114B124A5A600F4B002257
:100780009A600E4B0022DA600C4B4FF480421A61E3
:100790000A4B00225A61094B00229A61074B002242
:1007A000DA61064B00221A62044800F049FE034653
:1007B000002B01D000F096F800BF80BD8000002023
:1007C00000540040A086010080B500AF124B134AD0
:1007D0001A60114B124A5A600F4B00229A600E4B5E
:1007E0004022DA600C4B4FF480421A610A4B00221F
:1007F0005A61094B00229A61074B0022DA61064BCD
:1008000000221A62044800F01BFE0346002B01D0B0
:1008100000F068F800BF80BDD40000200058004000
:10082000A086010080B500AF114B124A1A60104B30
:100830004FF4E1325A600E4B00229A600C4B0022BA
:10084000DA600B4B00221A61094B0C225A61084BEB
:1008500000229A61064B0022DA61054803F098FCF9
:100860000346002B01D000F03DF800BF80BD00BF63
:10087000280100200010014080B485B000AF0023A3
:10088000FB60174B1B6B164A43F080031363144B3A
:100890001B6B03F08003FB60FB680023BB60104B05
:1008A0001B6B0F4A43F0020313630D4B1B6B03F0EA
:1008B0000203BB60BB6800237B60094B1B6B084ACB
:1008C00043F001031363064B1B6B03F001037B60D2
:1008D0007B6800BF1437BD465DF8047B704700BFDE
:1008E0000038024080B400AF72B600BF00BFFDE721
:1008F00080B483B000AF00237B60104B5B6C0F4A69
:1009000043F4804353640D4B5B6C03F480437B6082
:100910007B6800233B60094B1B6C084A43F0805303
:100920001364064B1B6C03F080533B603B6800BFB5
:100930000C37BD465DF8047B704700BF00380240AD
:1009400080B58CB000AF786007F11C0300221A60FC
:100950005A609A60DA601A617B681B68424A934267
:100960003CD10023BB61414B1B6B404A43F0020367
:1009700013633E4B1B6B03F00203BB61BB69C023D7
:10098000FB6112233B6201237B620323BB620423CE
:10099000FB6207F11C031946354800F0B5FB002344
:1009A0007B61324B1B6C314A43F4001313642F4BB1
:1009B0001B6C03F400137B617B69002200211F2064
:1009C00000F0CBFA1F2000F0E4FA002200212020E2
:1009D00000F0C3FA202000F0DCFA41E07B681B68DD
:1009E000244A93423CD100233B61204B1B6B1F4A9E
:1009F00043F0020313631D4B1B6B03F002033B61C7
:100A00003B694FF44063FB6112233B6201237B622D
:100A10000323BB620423FB6207F11C03194614483D
:100A200000F072FB0023FB60104B1B6C0F4A43F479
:100A3000800313640D4B1B6C03F48003FB60FB68A5
:100A400000220021212000F088FA212000F0A1FAE4
:100A500000220021222000F080FA222000F099FAE2
:100A600000BF3037BD4680BD005400400038024012
:100A7000000402400058004080B58AB000AF7860A2
:100A800007F1140300221A605A609A60DA601A6152
:100A90007B681B681D4A934234D100233B611C4B89
:100AA0005B6C1B4A43F010035364194B5B6C03F0FF
:100AB00010033B613B690023FB60154B1B6B144A21
:100AC00043F001031363124B1B6B03F00103FB6044
:100AD000FB684FF4C0637B610223BB610023FB61B1
:100AE00003233B6207237B6207F11403194609487D
:100AF00000F00AFB00220021252000F02EFA25201C
:100B000000F047FA00BF2837BD4680BD0010014005
:100B1000003802400000024080B400AF00BFFDE793
:100B200080B400AF00BFFDE780B400AF00BFFDE7B9
:100B300080B400AF00BFFDE780B400AF00BFFDE7A9
:100B400080B400AF00BFBD465DF8047B704780B441
:100B500000AF00BFBD465DF8047B704780B400AFB6
:100B600000BFBD465DF8047B704780B500AF00F064
:100B7000F9F800BF80BD000080B500AF024800F06A
:100B800027FF00BF80BD00BF8000002080B500AF00
:100B9000024801F08EF800BF80BD00BF8000002039
:100BA00080B500AF024800F013FF00BF80BD00BF5A
:100BB000D400002080B500AF024801F07AF800BFF1
:100BC00080BD00BFD400002080B500AF024803F014
:100BD000BBFB00BF80BD00BF2801002080B586B0F0
:100BE00000AF7860144A154BD31A7B617B693B6177
:100BF000134B1B68002B02D1114B124A1A60104B89
:100C00001A687B6813443A699A4207D204F002FBDF
:100C100003460C221A604FF0FF3309E0084B1B68B3
:100C2000FB60074B1A687B681344054A1360FB6836
:100C300018461837BD4680BD0000022000040000A1
:100C400078010020C802002080B400AF064BD3F822
:100C50008830054A43F47003C2F8883000BFBD46AF
:100C60005DF8047B704700BF00ED00E0DFF834D092
:100C7000FFF7EAFF0C480D490D4A002302E0D45863
:100C8000C4500433C4188C42F9D30A4A0A4C0023D6
:100C900001E013600432A242FBD304F0C1FAFFF773
:100CA00085FC704700000220000000206400002046
:100CB000A05B000864000020C8020020FEE70000DE
:100CC00080B500AF0E4B1B680D4A43F400731360F0
:100CD0000B4B1B680A4A43F480631360084B1B6884
:100CE000074A43F480731360032000F02BF90F20B0
:100CF00000F008F8FFF7FCFD0023184680BD00BF98
:100D0000003C024080B582B000AF7860124B1A6898
:100D1000124B1B7819464FF47A73B3FBF1F3B2FB15
:100D2000F3F3184600F043F90346002B01D00123EA
:100D30000EE07B680F2B0AD8002279684FF0FF3055
:100D400000F00BF9064A7B681360002300E00123E2
:100D500018460837BD4680BD08000020100000205E
:100D60000C00002080B400AF064B1B781A46064BDF
:100D70001B681344044A136000BFBD465DF8047B42
:100D8000704700BF100000207C01002080B400AF3D
:100D9000034B1B681846BD465DF8047B704700BFD7
:100DA0007C01002080B485B000AF78607B6803F0E0
:100DB0000703FB600C4BDB68BB60BA684FF6FF03B0
:100DC0001340BB60FB681A02BB68134343F0BF6368
:100DD00043F40033BB60044ABB68D36000BF1437E0
:100DE000BD465DF8047B704700ED00E080B400AFC5
:100DF000044BDB681B0A03F007031846BD465DF889
:100E0000047B704700ED00E080B483B000AF034680
:100E1000FB7197F90730002B0BDBFB7903F01F0206
:100E2000074997F907305B09012000FA02F241F8FF
:100E3000232000BF0C37BD465DF8047B704700BF20
:100E400000E100E080B483B000AF03463960FB717D
:100E500097F90730002B0ADB3B68DAB20C4997F9A7
:100E600007301201D2B20B4483F800230AE03B683A
:100E7000DAB20849FB7903F00F03043B1201D2B246
:100E80000B441A7600BF0C37BD465DF8047B7047F3
:100E900000E100E000ED00E080B489B000AFF86050
:100EA000B9607A60FB6803F00703FB61FB69C3F17B
:100EB0000703042B28BF0423BB61FB690433062B03
:100EC00002D9FB69033B00E000237B614FF0FF3256
:100ED000BB6902FA03F3DA43BB681A407B699A40A4
:100EE0004FF0FF317B6901FA03F3D9437B680B4074
:100EF000134318462437BD465DF8047B7047000055
:100F000080B582B000AF78607B68013BB3F1807F31
:100F100001D301230FE00A4A7B68013B53600F2194
:100F20004FF0FF30FFF78EFF054B00229A60044B15
:100F300007221A60002318460837BD4680BD00BF4F
:100F400010E000E080B582B000AF78607868FFF70D
:100F500029FF00BF0837BD4680BD80B586B000AF11
:100F60000346B9607A60FB7300237B61FFF73EFFA5
:100F700078617A68B9687869FFF78EFF024697F959
:100F80000F3011461846FFF75DFF00BF1837BD460A
:100F900080BD80B582B000AF0346FB7197F9073082
:100FA0001846FFF731FF00BF0837BD4680BD80B54A
:100FB00082B000AF78607868FFF7A2FF034618465A
:100FC0000837BD4680BD80B584B000AF78607B68CF
:100FD0009B6DFB60FFF7DAFEB8607B6893F83530F5
:100FE000DBB2022B08D07B6880225A657B68002226
:100FF00083F83420012352E07B681B681A687B6801
:101000001B6822F016021A607B681B685A697B68AD
:101010001B6822F080025A617B681B6C002B03D195
:101020007B689B6C002B07D07B681B681A687B6809
:101030001B6822F008021A607B681B681A687B68CC
:101040001B6822F001021A6013E0FFF79FFE0246C0
:10105000BB68D31A052B0CD97B6820225A657B68A4
:10106000032283F835207B68002283F83420032391
:1010700015E07B681B681B6803F00103002BE4D1BB
:101080007B68DB6D3F229A40FB689A607B68012297
:1010900083F835207B68002283F83420002318462B
:1010A0001037BD4680BD80B483B000AF78607B68E8
:1010B00093F83530DBB2022B04D07B6880225A656E
:1010C00001230CE07B68052283F835207B681B68D0
:1010D0001A687B681B6822F001021A600023184618
:1010E0000C37BD465DF8047B704780B483B000AF19
:1010F00078607B6893F83530DBB218460C37BD4614
:101100005DF8047B7047000080B489B000AF786060
:10111000396000237B6100233B610023BB61002316
:10112000FB616BE10122FB6902FA03F37B613B681F
:101130001B687A6913403B613A697B699A4240F0C7
:101140005A813B685B6803F00303012B05D03B68C1
:101150005B6803F00303022B30D17B689B68BB61A3
:10116000FB695B00032202FA03F3DB43BA69134015
:10117000BB613B68DA68FB695B0002FA03F3BA699A
:101180001343BB617B68BA699A607B685B68BB612B
:101190000122FB6902FA03F3DB43BA691340BB6126
:1011A0003B685B681B0903F00102FB6902FA03F369
:1011B000BA691343BB617B68BA695A603B685B6874
:1011C00003F00303032B17D07B68DB68BB61FB696B
:1011D0005B00032202FA03F3DB43BA691340BB61ED
:1011E0003B689A68FB695B0002FA03F3BA69134330
:1011F000BB617B68BA69DA603B685B6803F0030334
:10120000022B23D1FB69DA087B68083253F82230BD
:10121000BB61FB6903F007039B000F2202FA03F393
:10122000DB43BA691340BB613B681A69FB6903F091
:1012300007039B0002FA03F3BA691343BB61FB691E
:10124000DA087B680832B96943F822107B681B68AA
:10125000BB61FB695B00032202FA03F3DB43BA695B
:101260001340BB613B685B6803F00302FB695B00F2
:1012700002FA03F3BA691343BB617B68BA691A6067
:101280003B685B6803F44033002B00F0B48000231C
:10129000FB60604B5B6C5F4A43F4804353645D4B7F
:1012A0005B6C03F48043FB60FB685B4AFB699B0853
:1012B000023352F82330BB61FB6903F003039B0048
:1012C0000F2202FA03F3DB43BA691340BB617B6868
:1012D000524A93422BD07B68514A934225D07B6877
:1012E000504A93421FD07B684F4A934219D07B6883
:1012F0004E4A934213D07B684D4A93420DD07B688F
:101300004C4A934207D07B684B4A934201D1072352
:101310000EE008230CE006230AE0052308E004237E
:1013200006E0032304E0022302E0012300E000239F
:10133000FA6902F0030292009340BA691343BB6159
:101340003549FB699B080233BA6941F823203B4BBE
:101350009B68BB613B69DB43BA691340BB613B6877
:101360005B6803F48013002B03D0BA693B69134315
:10137000BB61324ABB699360304BDB68BB613B6940
:10138000DB43BA691340BB613B685B6803F400133D
:10139000002B03D0BA693B691343BB61274ABB6981
:1013A000D360264B5B68BB613B69DB43BA69134082
:1013B000BB613B685B6803F40033002B03D0BA6960
:1013C0003B691343BB611D4ABB6953601B4B1B68E0
:1013D000BB613B69DB43BA691340BB613B685B6837
:1013E00003F48033002B03D0BA693B691343BB611C
:1013F000124ABB691360FB690133FB61FB690F2B68
:101400007FF690AE00BF00BF2437BD465DF8047B79
:10141000704700BF00380240003801400000024021
:101420000004024000080240000C0240001002408C
:101430000014024000180240001C0240003C014021
:1014400080B584B000AF78607B68002B01D10123A8
:101450002BE17B6893F83D30DBB2002B06D17B6833
:10146000002283F83C207868FFF76AFA7B68242220
:1014700083F83D207B681B681A687B681B6822F034
:1014800001021A607B681B681A687B681B6842F45B
:1014900000421A607B681B681A687B681B6822F42C
:1014A00000421A6002F04CFEF8607B685B68814A7B
:1014B000934207D8FB68804A934294BF01230023DC
:1014C000DBB206E0FB687D4A934294BF0123002310
:1014D000DBB2002B01D00123E7E0FB68784AA2FBD6
:1014E00003239B0CBB607B681B685B6823F03F0198
:1014F0007B681B68BA680A435A607B681B681B6A72
:1015000023F03F017B685B686A4A934202D8BB685C
:10151000013309E0BB684FF4967202FB03F3694A9A
:10152000A2FB03239B0901337A6812680B43136201
:101530007B681B68DB6923F44F4222F0FF027B6863
:101540005B685C498B4219D8FB68591E7B685B68F5
:101550005B00B1FBF3F3591C40F6FC730B40002B0E
:101560000AD0FB68591E7B685B685B00B1FBF3F334
:101570000133C3F30B0351E004234FE07B689B6806
:10158000002B11D1FB68581E7B6859680B465B0025
:101590000B44B0FBF3F30133C3F30B03002B0CBF7D
:1015A00001230023DBB212E0FB68581E7B685968F8
:1015B0000B469B000B4499000B44B0FBF3F3013343
:1015C000C3F30B03002B0CBF01230023DBB2002B62
:1015D00001D0012322E07B689B68002B0ED1FB68C1
:1015E000581E7B6859680B465B000B44B0FBF3F355
:1015F0000133C3F30B0343F400430FE0FB68581EB1
:101600007B6859680B469B000B4499000B44B0FB68
:10161000F3F30133C3F30B0343F4404379680968E0
:101620001343CB617B681B681B6823F0C0017B6898
:10163000DA697B681B6A1A437B681B680A431A6075
:101640007B681B689B6823F4034323F0FF037A68DD
:1016500011697A68D26811437A6812680B43936003
:101660007B681B68DB6823F0FF017B685A697B6835
:101670009B691A437B681B680A43DA607B681B68B6
:101680001A687B681B6842F001021A607B680022BE
:101690001A647B68202283F83D207B6800221A634D
:1016A0007B68002283F83E20002318461037BD4691
:1016B00080BD00BFA08601007F841E00FF083D00A2
:1016C00083DE1B43D34D621080B483B000AF7860DB
:1016D0007B681B685B6903F08003802B03D17B6808
:1016E0001B6800221A6100BF0C37BD465DF8047B01
:1016F0007047000080B588B002AFF8607A601A4683
:101700000B467B8113463B81FFF740FB7861FB680A
:1017100093F83D30DBB2202B40F0E0807B690093F2
:10172000192301227049F86801F074FE0346002B6A
:1017300001D00223D3E0FB6893F83C30012B01D1A8
:101740000223CCE0FB68012283F83C20FB681B6885
:101750001B6803F00103012B07D0FB681B681A68A4
:10176000FB681B6842F001021A60FB681B681A687C
:10177000FB681B6822F400621A60FB68212283F870
:101780003D20FB68102283F83E20FB6800221A648B
:10179000FB687A685A62FB683A895A85FB685B8DF8
:1017A0009AB2FB681A85FB68504ADA6279897B69CC
:1017B0003A6AF86801F004FD0346002B01D00123CA
:1017C0008DE000233B61FB681B685B693B61FB6844
:1017D0001B689B693B613B6966E07A69396AF86816
:1017E00001F032FF0346002B0DD0FB681B6C042B6D
:1017F00007D1FB681B681A68FB681B6842F400721B
:101800001A6001236BE0FB685B6A1A78FB681B684F
:101810001A61FB685B6A5A1CFB685A62FB685B8D45
:101820009BB2013B9AB2FB685A85FB681B8D013B5A
:101830009AB2FB681A85FB681B685B6903F00403B6
:10184000042B1BD1FB681B8D002B17D0FB685B6A38
:101850001A78FB681B681A61FB685B6A5A1CFB6894
:101860005A62FB685B8D9BB2013B9AB2FB685A855A
:10187000FB681B8D013B9AB2FB681A857A69396A4D
:10188000F86801F029FF0346002B0DD0FB681B6CA4
:10189000042B07D1FB681B681A68FB681B6842F4BD
:1018A00000721A6001231AE0FB681B8D002B94D193
:1018B000FB681B681A68FB681B6842F400721A60B8
:1018C000FB68202283F83D20FB68002283F83E203D
:1018D000FB68002283F83C20002300E00223184626
:1018E0001837BD4680BD00BF020010000000FFFF9A
:1018F00080B485B000AFF860B9601346FB80FB6828
:1019000093F83D30DBB2202B58D1BB68002B02D0BE
:10191000FB88002B01D1012351E0FB6893F83C3098
:10192000012B01D102234AE0FB68012283F83C200D
:10193000FB681B681B6803F00103012B07D0FB68E1
:101940001B681A68FB681B6842F001021A60FB689A
:101950001B681A68FB681B6822F400621A60FB6847
:10196000222283F83D20FB68202283F83E20FB687A
:1019700000221A64FB68BA685A62FB68FA885A85C2
:10198000FB685B8D9AB2FB681A85FB680F4ADA62C6
:10199000FB681B681A68FB681B6842F480621A6067
:1019A000FB68002283F83C20FB681B685A68FB68D0
:1019B0001B6842F4E0625A60002300E002231846EC
:1019C0001437BD465DF8047B704700BF0000FFFF81
:1019D00080B588B000AF78600023BB617B681B686E
:1019E0005B687B617B68DB6A3B617B6893F83E30B8
:1019F000FB737B6893F83D30BB73FB7B102B03D0EC
:101A0000FB7B402B40F0C1807B681B689B69BB61FE
:101A10007B681B685B69FB61FB6903F00103002BBA
:101A20000DD13B69B3F52A0F03D03B69B3F12A4FBF
:101A300001D1012300E00023012B00F03281FB697A
:101A400003F00103002B0CD07B695B0A03F0010358
:101A5000002B06D0786801F0E8FE786800F091FD70
:101A600092E0FB69DB0803F00103002B09D07B69DE
:101A70005B0A03F00103002B03D0786800F007FE37
:101A800082E0FB695B0803F00103002B09D07B694E
:101A90005B0A03F00103002B03D0786800F021FEFD
:101AA00072E0BB699B0803F00103002B3BD07B680D
:101AB0001B685B6803F40063B3F5006F00F0F3800C
:101AC000FB69DB0903F00103002B0FD07B699B0A44
:101AD00003F00103002B09D0FB699B0803F001030D
:101AE000002B03D1786800F0E9F94DE0FB699B0811
:101AF00003F00103002B00F0D6807B695B0A03F042
:101B00000103002B00F0CF80BB7B212B03D1786831
:101B100000F070FAC7E0FB7B402B40F0C48078688F
:101B200000F0DEFABFE07B681B685B6803F40063CB
:101B3000B3F5006F00F0B780FB699B0903F0010368
:101B4000002B0FD07B699B0A03F00103002B09D007
:101B5000FB699B0803F00103002B03D1786800F0B8
:101B600057FB11E0FB699B0803F00103002B00F019
:101B70009A807B695B0A03F00103002B00F09380DD
:101B8000786800F00DFC8EE08DE07B681B6C002B0C
:101B900004D07B681B685B69FB6107E07B681B689E
:101BA0009B69BB617B681B685B69FB61FB695B08C8
:101BB00003F00103002B12D07B695B0A03F00103E1
:101BC000002B0CD07B681B6C002B03D07B681B6840
:101BD0009B69BB61B969786800F0D2FF66E0FB6978
:101BE0001B0903F00103002B09D07B695B0A03F09A
:101BF0000103002B03D0786801F00CF856E0BB7BA2
:101C0000212B02D0BB7B292B25D1FB69DB0903F0FB
:101C10000103002B0FD07B699B0A03F00103002B0B
:101C200009D0FB699B0803F00103002B03D17868FE
:101C300000F0E8FE39E0FB699B0803F00103002B8C
:101C400033D07B695B0A03F00103002B2DD0786849
:101C500000F015FF29E0FB699B0903F00103002B4D
:101C60000FD07B699B0A03F00103002B09D0FB69AD
:101C70009B0803F00103002B03D1786800F020FFDC
:101C800014E0FB699B0803F00103002B0ED07B6975
:101C90005B0A03F00103002B08D0786800F04EFFC8
:101CA00004E000BF02E000BF00E000BF2037BD46F7
:101CB00080BD80B58AB000AF78607B681B685B69C7
:101CC0003B627B681B685B68FB6100237B627B680F
:101CD00093F83E30FB763B6A1B0A03F00103002BAE
:101CE0000ED0FB691B0A03F00103002B08D07B6AAE
:101CF00043F001037B627B681B686FF480725A615A
:101D00003B6A5B0A03F00103002B0ED0FB691B0A40
:101D100003F00103002B08D07B6A43F002037B62CF
:101D20007B681B686FF400725A613B6A9B0A03F080
:101D30000103002B3FD0FB691B0A03F00103002BBA
:101D400039D0FB7EBB767B685B8D9BB27B617B6809
:101D500093F83D30FB747B681B6BFB60BB7E202BD4
:101D600012D17B69002B0FD1FB7C212B08D0FB7C8F
:101D7000292B05D0FB7C282B06D1FB68212B03D116
:101D8000786801F077F816E07B681B686FF4806272
:101D90005A617B6A43F004037B62FB7E102B02D006
:101DA000FB7E402B07D17B681B681A687B681B6829
:101DB00042F400721A603B6ADB0A03F00103002B55
:101DC0000ED0FB691B0A03F00103002B08D07B6ACD
:101DD00043F008037B627B681B686FF400625A6102
:101DE0007B6A002B08D07B681A6C7B6A1A437B687D
:101DF0001A64786801F0B2F800BF2837BD4680BD8C
:101E000080B483B000AF786000BF0C37BD465DF88A
:101E1000047B704780B483B000AF786000BF0C379C
:101E2000BD465DF8047B704780B483B000AF786036
:101E300000BF0C37BD465DF8047B704780B483B0AB
:101E400000AF78600B46FB7013463B8000BF0C3739
:101E5000BD465DF8047B704780B483B000AF786006
:101E600000BF0C37BD465DF8047B704780B483B07B
:101E700000AF786000BF0C37BD465DF8047B70474B
:101E800080B483B000AF786000BF0C37BD465DF80A
:101E9000047B704780B483B000AF786000BF0C371C
:101EA000BD465DF8047B704780B483B000AF7860B6
:101EB00000BF0C37BD465DF8047B704780B584B029
:101EC00000AF78607B6893F83D30FB737B6893F8D4
:101ED0003E30BB737B68DB6ABB607B681B8D002B6D
:101EE00050D1FB7B212B4DD1BB68082B1DD0BB688B
:101EF000202B1AD0BB6813F5803F16D07B681B6877
:101F00005A687B681B6822F4E0625A607B68112281
:101F10001A637B68002283F83E207B68202283F8C6
:101F20003D207868FFF76CFF60E07B681B685A68AB
:101F30007B681B6822F4E0625A607B681B681A6841
:101F40007B681B6842F400721A607B6800221A6387
:101F50007B68202283F83D207B6893F83E30DBB21B
:101F6000402B07D17B68002283F83E207868FFF77A
:101F70007DFF3BE07B68002283F83E207868FFF716
:101F80003FFF33E0FB7B212B05D0BB7B402B2DD1CA
:101F9000FB7B222B2AD17B685B8D9BB2002B08D167
:101FA0007B681B685A687B681B6822F480625A60F1
:101FB0001CE07B6893F83E30DBB2402B03D178689D
:101FC00000F08EF812E07B685B6A1A787B681B6809
:101FD0001A617B685B6A5A1C7B685A627B685B8DFE
:101FE0009BB2013B9AB27B685A85FFE700BF10376E
:101FF000BD4680BD80B584B000AF78607B68DB6A89
:10200000FB607B6893F83D30DBB2212B64D17B68A9
:102010005B8D9BB2002B12D07B685B6A1A787B6861
:102020001B681A617B685B6A5A1C7B685A627B6812
:102030005B8D9BB2013B9AB27B685A854CE0FB6892
:10204000082B1DD0FB68202B1AD0FB6813F5803FAE
:1020500016D07B681B685A687B681B6822F4E062B4
:102060005A607B6811221A637B68002283F83E2045
:102070007B68202283F83D207868FFF7C1FE2BE0C3
:102080007B681B685A687B681B6822F4E0625A60B0
:102090007B681B681A687B681B6842F400721A60D0
:1020A0007B6800221A637B68202283F83D207B68CE
:1020B00093F83E30DBB2402B07D17B68002283F8D7
:1020C0003E207868FFF7D2FE06E07B68002283F8A6
:1020D0003E207868FFF794FE00BF1037BD4680BDF4
:1020E00080B584B000AF78607B6893F83D30FB73B7
:1020F0007B681B6D002B1DD17B68DB6C012B0BD12A
:102100007B689B6CDAB27B681B681A617B681B6D0D
:102110009A1C7B681A6577E07B689B6C9BB21B12EC
:10212000DAB27B681B681A617B681B6D5A1C7B687E
:102130001A6569E07B681B6D012B0BD17B689B6C7A
:10214000DAB27B681B681A617B681B6D5A1C7B685E
:102150001A6559E07B681B6D022B52D1FB7B222B49
:102160000DD17B681B681A687B681B6842F480721B
:102170001A607B681B6D5A1C7B681A6544E07B689B
:102180005B8D9BB2002B15D0FB7B212B12D17B6882
:102190005B6A1A787B681B681A617B685B6A5A1CE9
:1021A0007B685A627B685B8D9BB2013B9AB27B680D
:1021B0005A8529E07B685B8D9BB2002B24D1FB7B89
:1021C000212B21D17B681B685A687B681B6822F42D
:1021D000E0625A607B681B681A687B681B6842F47F
:1021E00000721A607B6800221A637B68202283F8E1
:1021F0003D207B68002283F83E207868FFF736FE9A
:1022000002E07868FFF760FA00BF1037BD4680BD76
:1022100080B584B000AF78607B6893F83D30DBB266
:10222000222B40F0B9807B68DB6AFB607B685B8DAA
:102230009BB2BB60BB68032B21D97B681B681A6902
:102240007B685B6AD2B21A707B685B6A5A1C7B68D7
:102250005A627B685B8D9BB2013B9AB27B685A8560
:102260007B685B8D9BB2032B40F096807B681B687C
:102270005A687B681B6822F480625A608CE07B6835
:10228000DB6A022B7FD0BB68012B02D0BB68002B1E
:1022900079D1786801F068FA0346002B4CD17B684D
:1022A0001B681A687B681B6822F480621A607B686E
:1022B0001B685A687B681B6822F4E0625A607B687E
:1022C0001B681A697B685B6AD2B21A707B685B6AAA
:1022D0005A1C7B685A627B685B8D9BB2013B9AB249
:1022E0007B685A857B68202283F83D207B6893F8C1
:1022F0003E30DBB2402B0AD17B68002283F83E20BF
:102300007B6800221A637868FFF7BAFD44E07B68B7
:10231000002283F83E20FB68082B02D0FB68202BAC
:1023200003D17B6800221A6302E07B6812221A63E1
:102330007868FFF76FFD2FE07B681B685A687B6841
:102340001B6822F4E0625A607B681B681A697B682C
:102350005B6AD2B21A707B685B6A5A1C7B685A62ED
:102360007B685B8D9BB2013B9AB27B685A857B6828
:10237000202283F83D207B68002283F83E20786885
:10238000FFF788FD08E07B681B685A687B681B685C
:1023900022F480625A60FFE700BF1037BD4680BD5F
:1023A00080B584B000AF78607B68DB6AFB607B68D7
:1023B0005B8D9BB2042B1BD17B681B685A687B68C2
:1023C0001B6822F480625A607B681B681A697B680C
:1023D0005B6AD2B21A707B685B6A5A1C7B685A626D
:1023E0007B685B8D9BB2013B9AB27B685A85C4E0E7
:1023F0007B685B8D9BB2032B29D17B681B685A6875
:102400007B681B6822F480625A60FB68042B0AD048
:10241000FB68022B07D07B681B681A687B681B6807
:1024200022F480621A607B681B681A697B685B6AA9
:10243000D2B21A707B685B6A5A1C7B685A627B68EE
:102440005B8D9BB2013B9AB27B685A8595E07B68B5
:102450005B8D9BB2022B7DD1FB68012B02D0FB6808
:10246000102B08D17B681B681A687B681B6822F4F4
:1024700080621A6016E0FB68042B02D0FB68022B16
:1024800008D17B681B681A687B681B6842F480620D
:102490001A6007E07B681B681A687B681B6842F457
:1024A00000721A607B681B681A697B685B6AD2B22B
:1024B0001A707B685B6A5A1C7B685A627B685B8D0A
:1024C0009BB2013B9AB27B685A857B681B681A698C
:1024D0007B685B6AD2B21A707B685B6A5A1C7B6845
:1024E0005A627B685B8D9BB2013B9AB27B685A85CE
:1024F0007B681B685A687B681B6822F440725A60CC
:102500007B68202283F83D207B6893F83E30DBB265
:10251000402B0AD17B68002283F83E207B68002292
:102520001A637868FFF7ACFC27E07B68002283F829
:102530003E20FB68082B02D0FB68202B03D17B6870
:1025400000221A6302E07B6812221A637868FFF7A0
:1025500061FC12E07B681B681A697B685B6AD2B217
:102560001A707B685B6A5A1C7B685A627B685B8D59
:102570009BB2013B9AB27B685A8500BF1037BD46BB
:1025800080BD80B483B000AF78607B6893F83E3044
:10259000DBB2402B17D17B681B6D002B09D17B6808
:1025A0005B6CDBB21A467B681B6802F0FE021A61A4
:1025B00067E07B685B6CDBB243F00103DAB27B68F7
:1025C0001B681A615DE07B681B69B3F5804F33D1EE
:1025D0007B6893F83D30DBB2212B09D17B685B6CC3
:1025E000DBB21A467B681B6802F0FE021A6108E043
:1025F0007B685B6CDBB243F00103DAB27B681B687B
:102600001A617B685B6B002B04D07B685B6BDB6BB8
:10261000002B08D17B689B6B002B32D07B689B6BB7
:10262000DB6B002B2DD07B681B685A687B681B68AE
:1026300042F400625A6024E07B681B6D002B0ED1CF
:102640007B685B6C9BB2DB11DBB203F00603DBB291
:1026500063F00F03DAB27B681B681A6111E07B68D4
:102660001B6D012B0DD17B685B6C9BB2DB11DBB268
:1026700003F00603DBB263F00E03DAB27B681B687B
:102680001A6100BF0C37BD465DF8047B704780B40B
:1026900083B000AF78607B685B6CDAB27B681B68E4
:1026A0001A617B685B6B002B04D07B685B6BDB6B18
:1026B000002B08D17B689B6B002B0CD07B689B6B3D
:1026C000DB6B002B07D07B681B685A687B681B6834
:1026D00042F400625A6000BF0C37BD465DF8047BCF
:1026E000704780B491B000AF78607B6893F83E305B
:1026F00087F83F307B68DB6ABB637B681B6B7B635F
:102700007B6893F83D30DBB2222B40F069817B6817
:102710001B6D002B0FD197F83F30402B0BD10023BE
:102720003B637B681B685B693B637B681B689B69D9
:102730003B633B6B60E17B681B6D002B1DD17B68AD
:102740001B69B3F5404F18D10023FB627B681B68FF
:102750005B69FB627B681B689B69FB62FB6A7B6849
:102760001B681A687B681B6842F480721A607B6879
:102770001B6D5A1C7B681A653EE17B685B8D9BB2C2
:10278000002B13D10023BB627B681B685B69BB62B3
:102790007B681B689B69BB62BB6A7B681B681A68A5
:1027A0007B681B6842F400721A6015E17B685B8DE0
:1027B0009BB2012B40F08A80BB6B13F5803F37D171
:1027C0007B681B681A687B681B6822F480621A6049
:1027D0007B681B685B6803F40063B3F5006F13D17B
:1027E0007B681B681A687B681B6822F480621A6029
:1027F00000237B627B681B685B697B627B681B686C
:102800009B697B627B6AE7E000233B627B681B6815
:102810005B693B627B681B689B693B623B6A7B68C8
:102820001B681A687B681B6842F400721A60D3E068
:10283000BB6B082B2ED0BB6B202B2BD07B6B122BB2
:1028400002D1BB6B012B25D1BB6B042B0ED0BB6B14
:10285000022B0BD0BB6B102B08D07B681B681A684F
:102860007B681B6822F480621A6007E07B681B6843
:102870001A687B681B6842F480621A600023FB615F
:102880007B681B685B69FB617B681B689B69FB61FC
:10289000FB69A1E07B681B681A687B681B6822F4EF
:1028A00080621A600023BB617B681B685B69BB6147
:1028B0007B681B689B69BB61BB697B681B681A6886
:1028C0007B681B6842F400721A6085E07B685B8D50
:1028D0009BB2022B4DD1BB6B042B16D0BB6B022BD2
:1028E00013D0BB6B102B10D07B681B681A687B68F9
:1028F0001B6822F480621A607B681B681A687B6818
:102900001B6842F400621A6007E07B681B681A6863
:102910007B681B6842F480621A607B681B685B6896
:1029200003F40063B3F5006F17D1BB6B13F5803F61
:102930000BD0BB6B012B08D0BB6B082B05D0BB6B3E
:10294000102B02D0BB6B202B07D17B681B685A6809
:102950007B681B6842F480525A6000237B617B686D
:102960001B685B697B617B681B689B697B617B691A
:1029700032E07B681B681A687B681B6842F48062DF
:102980001A607B681B685B6803F40063B3F5006F33
:1029900017D1BB6B13F5803F0BD0BB6B012B08D05D
:1029A000BB6B082B05D0BB6B102B02D0BB6B202B55
:1029B00007D17B681B685A687B681B6842F48052A9
:1029C0005A6000233B617B681B685B693B617B68E5
:1029D0001B689B693B613B697B6800221A650BE0C1
:1029E0000023FB607B681B685B69FB607B681B687E
:1029F0009B69FB60FB68FFE700BF4437BD465DF89D
:102A0000047B704780B584B000AF78607B6893F832
:102A10003D30FB737B685B8D9BB2002B2BD07B68BA
:102A20005B6A1A787B681B681A617B685B6A5A1C50
:102A30007B685A627B685B8D9BB2013B9AB27B6874
:102A40005A857B685B8D9BB2002B14D1FB7B292BB5
:102A500011D17B681B685A687B681B6822F480620E
:102A60005A607B6821221A637B68282283F83D2004
:102A70007868FFF7D9F900BF1037BD4680BD80B434
:102A800083B000AF78607B685B8D9BB2002B11D068
:102A90007B685B6A1A787B681B681A617B685B6A73
:102AA0005A1C7B685A627B685B8D9BB2013B9AB271
:102AB0007B685A8500BF0C37BD465DF8047B7047C4
:102AC00080B584B000AF78607B6893F83D30FB73CD
:102AD0007B685B8D9BB2002B2CD07B681B681A69CE
:102AE0007B685B6AD2B21A707B685B6A5A1C7B682F
:102AF0005A627B685B8D9BB2013B9AB27B685A85B8
:102B00007B685B8D9BB2002B14D1FB7B2A2B11D1F0
:102B10007B681B685A687B681B6822F480625A6075
:102B20007B6822221A637B68282283F83D2078681C
:102B3000FDF770FD00BF1037BD4680BD80B483B087
:102B400000AF78607B685B8D9BB2002B12D07B68F6
:102B50001B681A697B685B6AD2B21A707B685B6A11
:102B60005A1C7B685A627B685B8D9BB2013B9AB2B0
:102B70007B685A8500BF0C37BD465DF8047B704703
:102B800080B584B000AF786039600023FB737B6848
:102B900093F83D30DBB203F02803282B27D17B6864
:102BA0001B685A687B681B6822F480625A603B6825
:102BB0009B0803F00103002B01D10123FB733B6849
:102BC000DB0903F00103002B03D17B68DB68BB81C9
:102BD00002E07B689B69BB817B68002283F83C2014
:102BE000BA89FB7B19467868FFF728F90EE00023C5
:102BF000BB607B681B685B69BB607B681B689B690B
:102C0000BB60BB687B68002283F83C2000BF1037A4
:102C1000BD4680BD80B584B000AF78607B6893F816
:102C20003D30FB737B681B685A687B681B6822F425
:102C3000E0625A600023BB607B681B685B69BB6015
:102C40007B681B681A687B681B6842F001021A6087
:102C5000BB687B681B681A687B681B6822F480620B
:102C60001A607B681B685B6803F40063B3F5006F50
:102C700072D1FB7B222B02D0FB7B2A2B35D17B68C8
:102C80009B6B1B685B689AB27B685A857B685B8D1F
:102C90009BB2002B05D07B681B6C43F004027B6861
:102CA0001A647B681B685A687B681B6822F40062A0
:102CB0005A607B689B6B1846FEF717FA0346012B98
:102CC00049D07B689B6B694A1A657B689B6B184689
:102CD000FEF7E9F90346002B3DD07B689B6B1B6D2B
:102CE0007A68926B1046984735E07B685B6B1B688F
:102CF0005B689AB27B685A857B685B8D9BB2002BC0
:102D000005D07B681B6C43F004027B681A647B6807
:102D10001B685A687B681B6822F400625A607B68F3
:102D20005B6B1846FEF7E1F90346012B14D07B6874
:102D30005B6B4E4A1A657B685B6B1846FEF7B3F90E
:102D40000346002B08D07B685B6B1B6D7A68526B67
:102D50001046984700E000BF7B685B8D9BB2002B5C
:102D60003ED07B681B685B6903F00403042B12D11F
:102D70007B681B681A697B685B6AD2B21A707B68D1
:102D80005B6A5A1C7B685A627B685B8D9BB2013B15
:102D90009AB27B685A857B681B685B6903F04003C5
:102DA000402B12D17B681B681A697B685B6AD2B2C0
:102DB0001A707B685B6A5A1C7B685A627B685B8D01
:102DC0009BB2013B9AB27B685A857B685B8D9BB254
:102DD000002B05D07B681B6C43F004027B681A64EF
:102DE0007B681B6C002B03D0786800F0B7F839E0E3
:102DF000FB7B2A2B09D17B6800221A637B6828227F
:102E000083F83D207868FDF705FC7B6893F83D303A
:102E1000DBB2282B11D17B68154ADA627B6800226D
:102E20001A637B68202283F83D207B68002283F8A8
:102E30003E207868FFF710F814E07B681B6B222BAC
:102E400002D0FB7B222B0DD17B6800221A637B68AA
:102E5000202283F83D207B68002283F83E2078689A
:102E6000FDF7D8FB00BF1037BD4680BDC532000856
:102E70000000FFFF80B584B000AF78607B6893F8F6
:102E80003D30FB737B68DB6ABB60BB68082B02D0FC
:102E9000BB68202B29D1FB7B282B26D17B682E4AAF
:102EA000DA627B681B685A687B681B6822F4E06200
:102EB0005A607B681B686FF480625A617B681B688C
:102EC0001A687B681B6822F480621A607B680022A3
:102ED0001A637B68202283F83D207B68002283F8F8
:102EE0003E207868FEF7B8FF31E0FB7B212B29D12B
:102EF0007B68194ADA627B6821221A637B68202288
:102F000083F83D207B68002283F83E207B681B68A5
:102F10005A687B681B6822F4E0625A607B681B6811
:102F20006FF480625A617B681B681A687B681B6853
:102F300022F480621A607868FEF7C6FB7868FEF7B4
:102F400073FF04E07B681B686FF480625A6100BF06
:102F50001037BD4680BD00BF0000FFFF80B584B0C4
:102F600000AF78607B6893F83D30FB737B6893F823
:102F70003E30BB73BB7B102B02D0BB7B402B0AD1F6
:102F8000FB7B222B07D17B681B681A687B681B6858
:102F900022F400621A60FB7B03F02803282B07D180
:102FA0007B6800221A637B68282283F83D2015E0A5
:102FB0007B681B685B6803F40063B3F5006F0AD09D
:102FC000FB7B602B07D07B68202283F83D207B6849
:102FD000002283F83E207B6800221A637B681B680E
:102FE0005B6803F40063B3F5006F62D17B681B6814
:102FF0005A687B681B6822F400625A607B685B6BCE
:1030000093F83530DBB2012B20D07B685B6B6A4ACA
:103010001A657B685B6B1846FEF745F80346002B84
:1030200000F089807B681B681A687B681B6822F047
:1030300001021A607B68202283F83D207B685B6B6D
:103040001B6D7A68526B1046984774E07B689B6BE7
:10305000594A1A657B689B6B1846FEF724F80346AD
:10306000002B68D07B681B685B6903F04003402B32
:103070000BD17B681B681A697B685B6AD2B21A70D5
:103080007B685B6A5A1C7B685A627B681B681A689B
:103090007B681B6822F001021A607B68202283F89B
:1030A0003D207B689B6B1B6D7A68926B104698473E
:1030B00041E07B6893F83D30DBB2602B25D17B6823
:1030C000202283F83D207B6800221A647B681B68FD
:1030D0005B6903F04003402B0BD17B681B681A69C6
:1030E0007B685B6AD2B21A707B685B6A5A1C7B6829
:1030F0005A627B681B681A687B681B6822F00102B1
:103100001A607868FEF7D0FE15E07B681B685B6983
:1031100003F04003402B0BD17B681B681A697B6866
:103120005B6AD2B21A707B685B6A5A1C7B685A620F
:103130007868FEF7AFFE7B681B6CBB60BB6803F072
:103140000103002B0ED1BB6803F00203002B09D151
:10315000BB6803F00403002B04D1BB6803F0080331
:10316000002B07D07B681B685A687B681B6822F4B9
:10317000E0625A607B6893F83D30FB737B681B6CA0
:1031800003F00403042B13D1FB7B282B10D17B68A5
:103190000A4ADA627B6800221A637B68202283F87D
:1031A0003D207B68002283F83E207868FEF754FEBD
:1031B00000BF1037BD4680BDC53200080000FFFFCC
:1031C00080B588B002AFF8607A603B600B467B81C7
:1031D000FB68DB6A7B617B69082B06D07B69012B6E
:1031E00003D07B6913F5803F08D1FB681B681A6820
:1031F000FB681B6842F480721A600BE0FB681B6B73
:10320000122B07D1FB681B681A68FB681B6842F425
:1032100080721A603B6800937B6800224FF00111B6
:10322000F86800F0F7F80346002B0DD0FB681B6828
:103230001B6803F48073B3F5807F03D1FB684FF400
:1032400000721A64032335E0FB681B69B3F5804FF5
:1032500008D17B89DBB21A46FB681B6802F0FE02CC
:103260001A611BE07B89DB11DBB203F00603DBB2E2
:1032700063F00F03DAB2FB681B681A613B687A6877
:103280000E49F86800F040F90346002B01D00123F5
:1032900010E07B89DAB2FB681B681A613B687A68C8
:1032A0000749F86800F030F90346002B01D00123EC
:1032B00000E0002318461837BD4680BD0800010015
:1032C0000200010080B586B000AF78600023FB608B
:1032D0007B689B6B7B617B6993F83D30FB744B4B48
:1032E0001B68DB084A4AA2FB03231A0A13469B0009
:1032F0001344DA00D31AFB60FB68002B06D17B690C
:103300001B6C43F020027B691A640AE0FB68013BF6
:10331000FB607B691B681B6803F40073B3F5007FD7
:10332000EAD07B695B6B002B03D07B695B6B00226F
:10333000DA637B699B6B002B03D07B699B6B00225C
:10334000DA637B691B681A687B691B6822F48062F8
:103350001A607B6900225A857B695B6B002B03D066
:103360007B695B6B00221A657B699B6B002B03D02A
:103370007B699B6B00221A657B691B681A687B69F5
:103380001B6822F001021A607B6993F83D30DBB2C2
:10339000602B0ED17B69202283F83D207B690022BF
:1033A00083F83E207B6900221A647869FEF77CFD71
:1033B00027E0FB7C03F02803282B17D17B691B68CF
:1033C0001A687B691B6842F001021A607B691B68FE
:1033D0001A687B691B6842F480621A607B6900226C
:1033E0001A637B69282283F83D2007E07B6920224D
:1033F00083F83D207B69002283F83E207869FEF740
:1034000049FD00BF1837BD4680BD00BF0800002041
:1034100089B5F81480B584B000AFF860B9603B603E
:103420001346FB7148E03B68B3F1FF3F44D0FDF722
:10343000ADFC0246BB69D31A3A689A4202D33B6894
:10344000002B39D1BB681B0CDBB2012B0DD1FB6803
:103450001B685B69DA43BB6813409BB2002B0CBF4F
:1034600001230023DBB21A460CE0FB681B689B6952
:10347000DA43BB6813409BB2002B0CBF012300232F
:10348000DBB21A46FB799A4216D1FB6800221A6316
:10349000FB68202283F83D20FB68002283F83E2051
:1034A000FB681B6C43F02002FB681A64FB68002277
:1034B00083F83C20012323E0BB681B0CDBB2012B0B
:1034C0000DD1FB681B685B69DA43BB6813409BB294
:1034D000002B0CBF01230023DBB21A460CE0FB6873
:1034E0001B689B69DA43BB6813409BB2002B0CBF7F
:1034F00001230023DBB21A46FB799A4293D00023C2
:1035000018461037BD4680BD80B584B000AFF86066
:10351000B9607A603B6071E0FB681B685B6903F42B
:103520008063B3F5806F23D1FB681B681A68FB6862
:103530001B6842F400721A60FB681B686FF48062BB
:103540005A61FB6800221A63FB68202283F83D2041
:10355000FB68002283F83E20FB681B6C43F00402EA
:10356000FB681A64FB68002283F83C20012367E0B3
:103570007B68B3F1FF3F41D0FDF708FC02463B6892
:10358000D31A7A689A4202D37B68002B36D1BB6883
:103590001B0CDBB2012B0CD1FB681B685B69DA43A7
:1035A000BB6813409BB2002B14BF01230023DBB286
:1035B0000BE0FB681B689B69DA43BB6813409BB256
:1035C000002B14BF01230023DBB2002B16D0FB68B5
:1035D00000221A63FB68202283F83D20FB6800224A
:1035E00083F83E20FB681B6C43F02002FB681A64E2
:1035F000FB68002283F83C20012321E0BB681B0C00
:10360000DBB2012B0CD1FB681B685B69DA43BB683A
:1036100013409BB2002B14BF01230023DBB20BE04D
:10362000FB681B689B69DA43BB6813409BB2002BA5
:1036300014BF01230023DBB2002B7FF46DAF002306
:1036400018461037BD4680BD80B584B000AFF86025
:10365000B9607A6034E0F86800F0B8F80346002BEF
:1036600001D0012334E0BB68B3F1FF3F28D0FDF760
:103670008DFB02467B68D31ABA689A4202D3BB68B4
:10368000002B1DD1FB681B685B6903F08003802B56
:1036900016D0FB6800221A63FB68202283F83D20C5
:1036A000FB68002283F83E20FB681B6C43F020027D
:1036B000FB681A64FB68002283F83C20012307E0C2
:1036C000FB681B685B6903F08003802BC3D1002378
:1036D00018461037BD4680BD80B584B000AFF86095
:1036E000B9607A6034E0F86800F070F80346002BA7
:1036F00001D0012334E0BB68B3F1FF3F28D0FDF7D0
:1037000045FB02467B68D31ABA689A4202D3BB686B
:10371000002B1DD1FB681B685B6903F00403042BBD
:1037200016D0FB6800221A63FB68202283F83D2034
:10373000FB68002283F83E20FB681B6C43F02002EC
:10374000FB681A64FB68002283F83C20012307E031
:10375000FB681B685B6903F00403042BC3D10023DF
:1037600018461037BD4680BD80B485B000AF786084
:103770000023FB60134B1B68DB08134AA2FB0323E7
:103780001A0A13469B001344FB60FB68013BFB6075
:10379000FB68002B07D17B681B6C43F020027B6821
:1037A0001A64012308E07B681B681B6803F400733C
:1037B000B3F5007FE9D0002318461437BD465DF805
:1037C000047B70470800002089B5F81480B483B0EA
:1037D00000AF78607B681B685B6903F48063B3F5B6
:1037E000806F1BD17B681B686FF480625A617B68B5
:1037F00000221A637B68202283F83D207B68002228
:1038000083F83E207B681B6C43F004027B681A64DB
:103810007B68002283F83C20012300E00023184647
:103820000C37BD465DF8047B704780B483B000AFB1
:1038300078607B68DB6AB3F52A0F03D17B680122CD
:10384000DA6207E07B68DB6AB3F12A4F02D17B685A
:103850000822DA6200BF0C37BD465DF8047B704772
:1038600080B586B000AF78607B68002B01D1012362
:1038700067E27B681B6803F00103002B75D0884B5F
:103880009B6803F00C03042B0CD0854B9B6803F062
:103890000C03082B12D1824B5B6803F48003B3F551
:1038A000800F0BD17E4B1B6803F40033002B5BD0E1
:1038B0007B685B68002B57D1012342E27B685B6821
:1038C000B3F5803F06D1764B1B68754A43F48033CD
:1038D00013601DE07B685B68B3F5A02F0CD1704BC3
:1038E0001B686F4A43F4802313606D4B1B686C4A5E
:1038F00043F4803313600BE0694B1B68684A23F480
:1039000080331360664B1B68654A23F48023136081
:103910007B685B68002B13D0FDF738FA386108E04C
:10392000FDF734FA02463B69D31A642B01D903230D
:1039300007E25B4B1B6803F40033002BF0D014E06C
:10394000FDF724FA386108E0FDF720FA02463B69EA
:10395000D31A642B01D90323F3E1514B1B6803F401
:103960000033002BF0D100E000BF7B681B6803F040
:103970000203002B63D04A4B9B6803F00C03002B1F
:103980000BD0474B9B6803F00C03082B1CD1444B16
:103990005B6803F48003002B16D1414B1B6803F0D6
:1039A0000203002B05D07B68DB68012B01D00123CB
:1039B000C7E13B4B1B6823F0F8027B681B69DB0007
:1039C000374913430B603AE07B68DB68002B20D05B
:1039D000344B01221A60FDF7D9F9386108E0FDF790
:1039E000D5F902463B69D31A022B01D90323A8E17A
:1039F0002B4B1B6803F00203002BF0D0284B1B68F5
:103A000023F0F8027B681B69DB00254913430B6038
:103A100015E0244B00221A60FDF7B8F9386108E080
:103A2000FDF7B4F902463B69D31A022B01D90323EF
:103A300087E11B4B1B6803F00203002BF0D17B686E
:103A40001B6803F00803002B36D07B685B69002BF2
:103A500016D0154B01221A60FDF798F9386108E07D
:103A6000FDF794F902463B69D31A022B01D90323CF
:103A700067E10B4B5B6F03F00203002BF0D01BE000
:103A8000094B00221A60FDF781F938610EE0FDF75D
:103A90007DF902463B69D31A022B07D9032350E173
:103AA0000038024000004742800E4742884B5B6F5F
:103AB00003F00203002BEAD17B681B6803F00403C8
:103AC000002B00F097800023FB75814B1B6C03F0EB
:103AD0008053002B0FD10023BB607D4B1B6C7C4AB5
:103AE00043F0805313647A4B1B6C03F08053BB602C
:103AF000BB680123FB75774B1B6803F48073002BB5
:103B000018D1744B1B68734A43F480731360FDF73C
:103B10003DF9386108E0FDF739F902463B69D31AEF
:103B2000022B01D903230CE16A4B1B6803F4807359
:103B3000002BF0D07B689B68012B06D1644B1B6F78
:103B4000634A43F0010313671CE07B689B68052B05
:103B50000CD15F4B1B6F5E4A43F0040313675C4B51
:103B60001B6F5B4A43F0010313670BE0584B1B6F5D
:103B7000574A23F001031367554B1B6F544A23F038
:103B8000040313677B689B68002B15D0FDF7FEF8D4
:103B900038610AE0FDF7FAF802463B69D31A41F2B0
:103BA0008832934201D90323CBE0494B1B6F03F0CA
:103BB0000203002BEED014E0FDF7E8F838610AE0CC
:103BC000FDF7E4F802463B69D31A41F2883293428A
:103BD00001D90323B5E03E4B1B6F03F00203002B1A
:103BE000EED1FB7D012B05D1394B1B6C384A23F0FC
:103BF000805313647B689B69002B00F0A180344BD9
:103C00009B6803F00C03082B5CD07B689B69022B3C
:103C100041D1314B00221A60FDF7B8F8386108E055
:103C2000FDF7B4F802463B69D31A022B01D90323EE
:103C300087E0274B1B6803F00073002BF0D17B68F3
:103C4000DA697B681B6A1A437B685B6A9B011A43CB
:103C50007B689B6A5B08013B1B041A437B68DB6A39
:103C60001B061B4913434B601B4B01221A60FDF7D7
:103C70008DF8386108E0FDF789F802463B69D31AF0
:103C8000022B01D903235CE0114B1B6803F0007386
:103C9000002BF0D054E0104B00221A60FDF776F8AC
:103CA000386108E0FDF772F802463B69D31A022B2F
:103CB00001D9032345E0064B1B6803F00073002B7A
:103CC000F0D13DE07B689B69012B07D1012338E0EF
:103CD0000038024000700040600047421B4B5B68A8
:103CE000FB607B689B69012B28D0FB6803F4800292
:103CF0007B68DB699A4221D1FB6803F03F027B6855
:103D00001B6A9A421AD1FA6847F6C07313407A6860
:103D1000526A9201934211D1FB6803F440327B68EE
:103D20009B6A5B08013B1B049A4207D1FB6803F0C6
:103D300070627B68DB6A1B069A4201D0012300E0B7
:103D4000002318461837BD4680BD00BF003802402A
:103D500080B584B000AF786039607B68002B01D1FA
:103D60000123CCE0684B1B6803F007033A689A42D2
:103D70000CD9654B3A68D2B21A70634B1B6803F0DA
:103D800007033A689A4201D00123B8E07B681B68B8
:103D900003F00203002B20D07B681B6803F00403B0
:103DA000002B05D0594B9B68584A43F4E05393606D
:103DB0007B681B6803F00803002B05D0534B9B68FE
:103DC000524A43F460439360504B9B6823F0F002E7
:103DD0007B689B684D4913438B607B681B6803F0CD
:103DE0000103002B44D07B685B68012B07D1474B54
:103DF0001B6803F40033002B19D101237FE07B689B
:103E00005B68022B03D07B685B68032B07D13F4BB9
:103E10001B6803F00073002B09D101236FE03B4BBB
:103E20001B6803F00203002B01D1012367E0374B2D
:103E30009B6823F003027B685B68344913438B6003
:103E4000FCF7A4FFF8600AE0FCF7A0FF0246FB685D
:103E5000D31A41F28832934201D903234FE02B4B0E
:103E60009B6803F00C027B685B689B009A42EBD175
:103E7000254B1B6803F007033A689A420CD2224B89
:103E80003A68D2B21A70204B1B6803F007033A68F5
:103E90009A4201D0012332E07B681B6803F00403DF
:103EA000002B08D0194B9B6823F4E0527B68DB6839
:103EB000164913438B607B681B6803F00803002BD3
:103EC00009D0124B9B6823F460427B681B69DB00BE
:103ED0000E4913438B6000F021F802460B4B9B68A0
:103EE0001B0903F00F030A49CB5C22FA03F3094ACA
:103EF0001360094B1B681846FCF704FF00231846A3
:103F00001037BD4680BD00BF003C02400038024073
:103F1000445B0008080000200C0000202DE9B04F91
:103F200094B000AF00237B640023FB6400233B6458
:103F30000023BB64794B9B6803F00C03082B0DD066
:103F4000082B00F2E180002B02D0042B03D0DBE031
:103F5000734BBB64DBE0734BBB64D8E06F4B5B68B7
:103F600003F03F037B646D4B5B6803F48003002B1D
:103F700063D06A4B5B689B090022BB63FA63BB6B2F
:103F8000C3F308033B6300237B63D7E90C45224658
:103F90002B464FF000004FF00001590141EAD26179
:103FA000500102460B462146511A3961294663EBFE
:103FB00001037B614FF000024FF00003D7E904AB2F
:103FC00059468B01514643EA916351468A01514655
:103FD000B2EB0108594663EB01094FF000024FF0C4
:103FE00000034FEAC90343EA58734FEAC8029046F8
:103FF0009946234618EB0303BB602B4649EB0303AA
:10400000FB604FF000024FF00003D7E9024529465C
:104010004B02214643EAD15321464A021046194633
:104020007B6C0022BB62FA62D7E90A23FCF728F90D
:1040300002460B461346FB6458E0384B5B689B090D
:10404000002218461146C0F308033B6200237B623E
:10405000D7E9088942464B464FF000004FF0000177
:10406000590141EAD261500102460B464146B2EB8A
:10407000010A494663EB010B4FF000024FF00003C9
:104080004FEA8B1343EA9A634FEA8A12B2EB0A04AF
:1040900063EB0B054FF000024FF00003EB0043EA27
:1040A0005473E20014461D464346E3183B604B46FA
:1040B00045EB03037B604FF000024FF00003D7E9AC
:1040C000004529468B02214643EA915321468A0244
:1040D000104619467B6C0022BB61FA61D7E90623C2
:1040E000FCF7CEF802460B461346FB640B4B5B68AD
:1040F0001B0C03F0030301335B003B64FA6C3B6C65
:10410000B2FBF3F3BB6402E0054BBB6400BFBB6CC6
:1041100018465037BD46BDE8B08F00BF003802409A
:104120000024F40000127A0080B400AF034B1B6837
:104130001846BD465DF8047B704700BF08000020AC
:1041400080B500AFFFF7F0FF0246054B9B689B0A66
:1041500003F007030349CB5C22FA03F3184680BD42
:1041600000380240545B000880B500AFFFF7DCFF69
:104170000246054B9B685B0B03F007030349CB5CCE
:1041800022FA03F3184680BD00380240545B000851
:1041900080B582B000AF78607B68002B01D101232D
:1041A00042E07B6893F84130DBB2002B06D17B689C
:1041B000002283F840207868FCF75EFC7B682422AC
:1041C00083F841207B681B68DA687B681B6822F4EF
:1041D0000052DA60786800F07FFD7B681B681A691E
:1041E0007B681B6822F490421A617B681B685A69DD
:1041F0007B681B6822F02A025A617B681B68DA68B8
:104200007B681B6842F40052DA607B6800225A64C3
:104210007B68202283F841207B68202283F842209B
:104220007B6800225A63002318460837BD4680BDCC
:1042300080B58AB002AFF860B9603B601346FB807E
:1042400000237B61FB6893F84130DBB2202B75D1F2
:10425000BB68002B02D0FB88002B01D101236EE04C
:10426000FB6800225A64FB68212283F84120FCF796
:104270008DFD7861FB68FA889A84FB68FA88DA8495
:10428000FB689B68B3F5805F08D1FB681B69002B56
:1042900004D10023FB61BB68BB6103E0BB68FB6129
:1042A0000023BB612EE03B6800937B6900228021E4
:1042B000F86800F01DFB0346002B05D0FB682022A8
:1042C00083F8412003233AE0FB69002B0BD1BB6943
:1042D0001B881A46FB681B68C2F308025A60BB6958
:1042E0000233BB6107E0FB691A78FB681B685A6000
:1042F000FB690133FB61FB68DB8C9BB2013B9AB22B
:10430000FB68DA84FB68DB8C9BB2002BCBD13B686B
:1043100000937B6900224021F86800F0E9FA034627
:10432000002B05D0FB68202283F84120032306E000
:10433000FB68202283F84120002300E00223184676
:104340002037BD4680BD000080B5BAB000AF7860B0
:104350007B681B681B68C7F8E4307B681B68DB68F8
:10436000C7F8E0307B681B685B69C7F8DC30002366
:10437000C7F8D8300023C7F8D430D7F8E43003F0BA
:104380000F03C7F8D830D7F8D830002B0FD1D7F8A3
:10439000E43003F02003002B09D0D7F8E03003F01D
:1043A0002003002B03D0786800F0D7FB73E2D7F826
:1043B000D830002B00F0DE80D7F8DC3003F00103AA
:1043C000002B06D1D7F8E03003F49073002B00F0F7
:1043D000D180D7F8E43003F00103002B0BD0D7F8DD
:1043E000E03003F48073002B05D07B685B6C43F0F6
:1043F00001027B685A64D7F8E43003F00403002B11
:104400000BD0D7F8DC3003F00103002B05D07B681C
:104410005B6C43F002027B685A64D7F8E43003F027
:104420000203002B0BD0D7F8DC3003F00103002B84
:1044300005D07B685B6C43F004027B685A64D7F854
:10444000E43003F00803002B11D0D7F8E03003F07C
:104450002003002B05D1D7F8DC3003F00103002B3B
:1044600005D07B685B6C43F008027B685A647B680C
:104470005B6C002B00F00A82D7F8E43003F02003D5
:10448000002B08D0D7F8E03003F02003002B02D037
:10449000786800F062FB7B681B685B6903F040038F
:1044A000402B0CBF01230023DBB2C7F8D4307B685C
:1044B0005B6C03F00803002B03D1D7F8D430002B3A
:1044C0004FD0786800F06DFA7B681B685B6903F079
:1044D0004003402B41D17B681B681433C7F89C30E4
:1044E000D7F89C3053E8003FC7F89830D7F8983099
:1044F00023F04003C7F8D0307B681B681433D7F82B
:10450000D020C7F8A820C7F8A430D7F8A410D7F84F
:10451000A82041E80023C7F8A030D7F8A030002B2E
:10452000D9D17B68DB6B002B13D07B68DB6B8A4AAD
:104530001A657B68DB6B1846FCF7B5FD0346002B5C
:1045400016D07B68DB6B1B6D7A68D26B1046984780
:104550000EE0786800F0B6F90AE0786800F0B2F989
:1045600006E0786800F0AEF97B6800225A648DE1BD
:1045700000BF8BE17B681B6B012B40F06781D7F894
:10458000E43003F01003002B00F06081D7F8E03036
:1045900003F01003002B00F059810023BB607B68FF
:1045A0001B681B68BB607B681B685B68BB60BB6883
:1045B0007B681B685B6903F04003402B40F0CE80B2
:1045C0007B68DB6B1B685B68A7F8BE30B7F8BE3052
:1045D000002B00F0A9807B689B8DB7F8BE209A4223
:1045E00080F0A2807B68B7F8BE20DA857B68DB6B41
:1045F000DB69B3F5807F00F088807B681B680C3333
:10460000C7F88830D7F8883053E8003FC7F88430BF
:10461000D7F8843023F48073C7F8B8307B681B6800
:104620000C33D7F8B820C7F89420C7F89030D7F8E3
:104630009010D7F8942041E80023C7F88C30D7F8C1
:104640008C30002BD9D17B681B6814337B677B6F60
:1046500053E8003F3B673B6F23F00103C7F8B430DA
:104660007B681B681433D7F8B420C7F88020FB6739
:10467000F96FD7F8802041E80023BB67BB6F002BA0
:10468000E1D17B681B6814333B663B6E53E8003F07
:10469000FB65FB6D23F04003C7F8B0307B681B68F7
:1046A0001433D7F8B020FA66BB66B96EFA6E41E8EB
:1046B00000237B667B6E002BE3D17B68202283F88E
:1046C00042207B6800221A637B681B680C33FB6402
:1046D000FB6C53E8003FBB64BB6C23F01003C7F8CE
:1046E000AC307B681B680C33D7F8AC20BA657B65AF
:1046F000796DBA6D41E800233B653B6D002BE3D13A
:104700007B68DB6B1846FCF75EFC7B6802225A6311
:104710007B689A8D7B68DB8D9BB2D31A9BB219465E
:10472000786800F0D9F8B3E07B689B8DB7F8BE20BD
:104730009A4240F0AD807B68DB6BDB69B3F5807F2C
:1047400040F0A6807B6802225A637B689B8D1946E5
:10475000786800F0C1F89BE0694A00087B689A8D90
:104760007B68DB8D9BB2D31AA7F8CE307B68DB8DDC
:104770009BB2002B00F08E80B7F8CE30002B00F0FB
:1047800089807B681B680C33BB63BB6B53E8003FBD
:104790007B637B6B23F49073C7F8C8307B681B681E
:1047A0000C33D7F8C8207A643B64396C7A6C41E8E2
:1047B0000023FB63FB6B002BE3D17B681B68143386
:1047C0007B627B6A53E8003F3B623B6A23F0010354
:1047D000C7F8C4307B681B681433D7F8C4203A6329
:1047E000FB62F96A3A6B41E80023BB62BB6A002BAB
:1047F000E3D17B68202283F842207B6800221A6381
:104800007B681B680C333B613B6953E8003FFB60EE
:10481000FB6823F01003C7F8C0307B681B680C33BB
:10482000D7F8C020FA61BB61B969FA6941E8002391
:104830007B617B69002BE3D17B6802225A63B7F866
:10484000CE301946786800F047F823E0D7F8E43016
:1048500003F08003002B09D0D7F8E03003F0800389
:10486000002B03D0786800F010F914E0D7F8E4309A
:1048700003F04003002B0ED0D7F8E03003F04003E4
:10488000002B08D0786800F050F904E000BF02E087
:1048900000BF00E000BFE837BD4680BD80B483B0F4
:1048A00000AF786000BF0C37BD465DF8047B7047F1
:1048B00080B483B000AF786000BF0C37BD465DF8B0
:1048C000047B704780B483B000AF786000BF0C37C2
:1048D000BD465DF8047B704780B483B000AF78605C
:1048E0000B467B8000BF0C37BD465DF8047B7047EC
:1048F00080B586B000AFF860B9603B601346FB71CD
:104900003BE03B6AB3F1FF3F37D0FCF73FFA02468A
:104910003B68D31A3A6A9A4202D33B6A002B01D110
:1049200003233AE0FB681B68DB6803F00403002BF9
:1049300023D0BB68802B20D0BB68402B1DD0FB68E8
:104940001B681B6803F00803082B16D100237B614A
:10495000FB681B681B687B61FB681B685B687B618D
:104960007B69F86800F01DF8FB6808225A64FB6850
:10497000002283F8402001230FE0FB681B681A68BF
:10498000BB681340BA689A420CBF01230023DBB214
:104990001A46FB799A42B4D0002318461837BD4610
:1049A00080BD80B495B000AF78607B681B680C3325
:1049B0007B637B6B53E8003F3B633B6B23F490735B
:1049C000FB647B681B680C33FA6C3A64FB63F96B1D
:1049D0003A6C41E80023BB63BB6B002BE5D17B68DD
:1049E0001B6814333B623B6A53E8003FFB61FB6981
:1049F00023F00103BB647B681B681433BA6CFA6252
:104A0000BB62B96AFA6A41E800237B627B6A002BC9
:104A1000E5D17B681B6B012B19D17B681B680C33BC
:104A2000FB60FB6853E8003FBB60BB6823F01003EA
:104A30007B647B681B680C337A6CBA617B61796933
:104A4000BA6941E800233B613B69002BE5D17B68F3
:104A5000202283F842207B6800221A6300BF54376B
:104A6000BD465DF8047B704780B584B000AF7860C8
:104A70007B689B6BFB60FB680022DA85F868FFF7B8
:104A800021FF00BF1037BD4680BD80B485B000AFA8
:104A900078607B6893F84130DBB2212B3ED17B6894
:104AA0009B68B3F5805F14D17B681B69002B10D124
:104AB0007B681B6AFB60FB681B881A467B681B6867
:104AC000C2F308025A607B681B6A9A1C7B681A62F0
:104AD00008E07B681B6A591C7A6811621A787B6847
:104AE0001B685A607B68DB8C9BB2013B9BB27A6887
:104AF0001946D184002B0FD17B681B68DA687B686C
:104B00001B6822F08002DA607B681B68DA687B68C9
:104B10001B6842F04002DA60002300E002231846DE
:104B20001437BD465DF8047B704780B582B000AF96
:104B300078607B681B68DA687B681B6822F040023B
:104B4000DA607B68202283F841207868FFF7A6FEB0
:104B5000002318460837BD4680BD80B58CB000AF35
:104B600078600023FB620023BB627B6893F84230CD
:104B7000DBB2222B40F0AA807B689B68B3F5805F94
:104B800015D17B681B69002B11D17B689B6ABB62C6
:104B90007B681B685B689BB2C3F308039AB2BB6A6D
:104BA0001A807B689B6A9A1C7B689A6224E07B6807
:104BB0009B6AFB627B689B68B3F5805F07D07B686C
:104BC0009B68002B0AD17B681B69002B06D17B6890
:104BD0001B685B68DAB2FB6A1A7008E07B681B68C6
:104BE0005B68DBB203F07F03DAB2FB6A1A707B68A2
:104BF0009B6A5A1C7B689A627B68DB8D9BB2013B87
:104C00009BB27A681946D185002B5DD17B681B6801
:104C1000DA687B681B6822F02002DA607B681B6818
:104C2000DA687B681B6822F48072DA607B681B6834
:104C30005A697B681B6822F001025A617B68202256
:104C400083F842207B6800225A637B681B6B012B30
:104C500035D17B6800221A637B681B680C337B614B
:104C60007B6953E8003F3B613B6923F010037B62A3
:104C70007B681B680C337A6A3A62FB61F9693A6AAD
:104C800041E80023BB61BB69002BE5D17B681B6851
:104C90001B6803F01003102B0AD10023FB607B6814
:104CA0001B681B68FB607B681B685B68FB60FB68BC
:104CB0007B689B8D19467868FFF70EFE02E07868E6
:104CC000FFF7F6FD002302E0002300E00223184670
:104CD0003037BD4680BD00002DE9B04FC0B000AFF9
:104CE000C7F8F400D7F8F4301B681B6923F4405070
:104CF000D7F8F430D968D7F8F4301A6840EA0103DD
:104D00001361D7F8F4309A68D7F8F4301B691A4366
:104D1000D7F8F4305B691A43D7F8F430DB691343F2
:104D2000C7F8F830D7F8F4301B68DB6823F4164175
:104D300021F00C01D7F8F4301A68D7F8F8300B439B
:104D4000D360D7F8F4301B685B6923F44070D7F860
:104D5000F4309969D7F8F4301A6840EA01035361D6
:104D6000D7F8F4301A688F4B9A4205D0D7F8F43050
:104D70001A688D4B9A4204D1FFF7F6F9C7F8FC0088
:104D800003E0FFF7DDF9C7F8FC00D7F8F430DB6982
:104D9000B3F5004F40F00C81D7F8FC300022C7F883
:104DA000E830C7F8EC20D7E93A4522462B4691185F
:104DB000B9655B41FB65D7E91623214612EB010873
:104DC000294643EB01094FF000024FF000034FEA80
:104DD000C90343EA58734FEAC802904699462346EE
:104DE00018EB0303C7F8E0302B4649EB0303C7F881
:104DF000E430D7F8F4305B680022C7F8D830C7F841
:104E0000DC20D7E936120B46DB183B65134642EB34
:104E100003037B65D7E91423D7E93801FBF730FAA0
:104E200002460B46614BA3FB02235B091C01D7F82A
:104E3000FC300022C7F8D030C7F8D420D7E9348935
:104E400042464B469118B9645B41FB64D7E9122393
:104E5000414612EB010A494643EB010B4FF00002B9
:104E60004FF000034FEACB0343EA5A734FEACA02FA
:104E700092469B4643461AEB0303C7F8C8304B469D
:104E80004BEB0303C7F8CC30D7F8F4305B68002253
:104E9000C7F8C030C7F8C420D7E930120B46DB187A
:104EA0003B64134642EB03037B64D7E91023D7E945
:104EB0003201FBF7E5F902460B4611463B4BA3FBDB
:104EC00001235B09642202FB03F3CB1ADB0003F12D
:104ED0003202364BA3FB02235B095B0003F4F87339
:104EE0001C44D7F8FC300022C7F8B830C7F8BC2003
:104EF000D7E92E8942464B469118B9635B41FB6363
:104F0000D7E90E2341465118396349464B417B632B
:104F10004FF000024FF00003D7E90CAB5946CB002D
:104F2000514643EA51735146CA001046194603469A
:104F300042469B18C7F8B0304B460A4642EB030383
:104F4000C7F8B430D7F8F4305B680022C7F8A8304F
:104F5000C7F8AC20D7E92A120B46DB18BB62134610
:104F600042EB0303FB62D7E90A23D7E92C01FBF7E5
:104F700087F902460B460D4BA3FB02135B09642124
:104F800001FB03F3D31ADB003233084AA2FB0323ED
:104F90005B0903F00702D7F8F4301B6822449A60DB
:104FA00006E100BF00100140001401401F85EB51D5
:104FB000D7F8FC300022C7F8A030C7F8A420D7E902
:104FC000288942464B46911839625B417B62D7E99A
:104FD000082341465418494643EB01054FF00002AF
:104FE0004FF00003EB0043EA5473E20014461D4601
:104FF0004346E318C7F898304B4645EB0303C7F820
:105000009C30D7F8F4305B680022C7F89030C7F8BE
:1050100094204FF000024FF00003D7E924452946C1
:105020008B00214643EA917321468A00D7E9260185
:10503000FBF726F902460B46604BA3FB02235B09F4
:105040001C01D7F8FC300022C7F88830C7F88C2044
:10505000D7E9228942464B469118B9615B41FB6111
:10506000D7E9062341465118396149464B417B61D6
:105070004FF000024FF00003D7E904AB5946CB00D4
:10508000514643EA51735146CA0010461946034639
:1050900042469B18C7F880304B460A4642EB030352
:1050A000C7F88430D7F8F4305B680022BB67FA6732
:1050B0004FF000024FF00003D7E91E8949468B00EC
:1050C000414643EA917341468A00D7E92001FBF744
:1050D000D7F802460B461146384BA3FB01235B0968
:1050E000642202FB03F3CB1A1B013233334AA2FBC7
:1050F00003235B0903F0F0031C44D7F8FC300022C3
:105100003B677A67D7E91C8942464B469118B960DC
:105110005B41FB60D7E9022341465118396049469B
:105120004B417B604FF000024FF00003D7E900AB2A
:105130005946CB00514643EA51735146CA001046C6
:105140001946034642469B18BB664B460A4642EB4D
:105150000303FB66D7F8F4305B6800223B667A668F
:105160004FF000024FF00003D7E9188949468B0041
:10517000414643EA917341468A00D7E91A01FBF799
:105180007FF802460B460D4BA3FB02135B0964211B
:1051900001FB03F3D31A1B013233084AA2FB03239A
:1051A0005B0903F00F02D7F8F4301B6822449A60C1
:1051B00000BF07F58077BD46BDE8B08F1F85EB5176
:1051C0000EB410B59DB01FAB029006906FF0004179
:1051D0000A48079104910A4953F8042B05910024C9
:1051E00002A9006801931B9400F094F9029B1C70C3
:1051F0001DB0BDE8104003B0704700BF1400002090
:105200000802FFFF02440346934200D1704703F8AF
:10521000011BF9E7014B1868704700BF140000201C
:1052200070B50D4D0D4C641BA4100026A64209D18B
:105230000B4D0C4C00F064FC641BA4100026A6422D
:1052400005D170BD55F8043B98470136EEE755F897
:10525000043B98470136F2E7985B0008985B00082A
:10526000985B00089C5B00087047704738B505469E
:10527000002941D051F8043C0C1F002BB8BFE418A2
:1052800000F0E0F81D4A136833B9636014602846E3
:10529000BDE8384000F0DCB8A34208D920682118E6
:1052A0008B4201BF19685B6809182160EDE71A4657
:1052B0005B680BB1A342FAD911685018A0420BD118
:1052C00020680144501883421160E0D118685B687F
:1052D000536008441060DAE702D90C232B60D6E74C
:1052E000206821188B4204BF19685B68636004BFA3
:1052F000091821605460CAE738BD00BFC40200200D
:1053000070B50F4E0C463168054611B900F0A4FB8C
:1053100030602146284600F09FFB431C03D14FF02C
:10532000FF34204670BDC41C24F00304A042F8D012
:10533000211A284600F090FB0130F2D1EFE700BFC0
:10534000C00200202DE9F843CD1C25F003050835E7
:105350000C2D38BF0C25002D064601DBA94204D9CF
:105360000C2333600020BDE8F883DFF8D48000F020
:1053700069F8D8F800301C4644BB29463046FFF790
:10538000BFFF431C044658D1D8F800402746002FE1
:1053900043D1002C4BD023683946304604EB030937
:1053A00000F05AFB814542D121686D1A29463046EA
:1053B000FFF7A6FF01303AD023682B442360D8F8CA
:1053C00000305A6862BBC8F800700FE02268521BB8
:1053D00020D40B2A17D96119A342256018BF596040
:1053E000636808BFC8F8001062514B60304600F097
:1053F0002FF804F10B00231D20F00700C21A1CBF78
:105400001B1AA350AFE76268A3420CBFC8F8002084
:105410005A60EBE723466468AEE73C467F68B6E730
:105420001A465B68A342FBD100235360DEE70C23DE
:105430003360304600F00CF894E70560D6E700BF13
:10544000C40200200148FFF70FBF00BFBC020020CC
:105450000148FFF70ABF00BFBC0200202DE9F0475A
:105460008E681F46BE420B6882460C4690462DD879
:10547000B1F90C2012F4906F26D06569096905EB2B
:105480004505A3EB010905EBD5757B1C4B446D105D
:105490009D4238BF1D46530527D52946FFF752FFC9
:1054A000064660B321694A4600F0E6FAA38923F470
:1054B000906343F08003A381266165614E44A5EBB0
:1054C00009052660A5603E46BE4200D93E462068DA
:1054D0003246414600F0A6FAA3689B1BA3602368EE
:1054E000334423600020BDE8F0872A4600F0D2FA5A
:1054F00006460028E0D121695046FFF7B7FE0C238D
:10550000CAF80030A38943F04003A3814FF0FF3075
:10551000E9E700002DE9F04F98468B891B069DB006
:1055200007460D46144610D50B6973B94021FFF7A5
:1055300009FF2860286130B90C233B604FF0FF3031
:105540001DB0BDE8F08F40236B6100230993202339
:105550008DF82930CDF80C803023DFF89C818DF850
:105560002A304FF0010923469A4613F8012B0AB15D
:10557000252AF9D1BAEB040B0BD05B46224629460B
:105580003846FFF76BFF013000F0A780099A5A44B4
:1055900009929AF80030002B00F09F8000234FF012
:1055A000FF32CDE905230AF1010A049307938DF830
:1055B00053301A935446052214F8011B4E48FAF74B
:1055C0000FFE049AD8B9D00644BF20238DF853307B
:1055D000110744BF2B238DF853309AF800302A2B43
:1055E00015D0079A544600204FF00A0C214611F8B6
:1055F000013B303B092B4BD9B0B1079214E0A0EB33
:10560000080309FA03F313430493A246D2E7039B6A
:10561000191D1B680391002BBBBF5B4242F00202C5
:1056200007930793B8BF049223782E2B0AD163788F
:105630002A2B32D1039B1A1D1B68039243EAE373A2
:1056400002340593DFF8C0A0217803225046FAF710
:10565000C7FD38B1049BA0EB0A00402282401343EF
:105660000134049314F8011B24488DF828100622F5
:10567000FAF7B6FD002836D0214B1BBB039B07333E
:1056800023F0070308330393099B334409936AE724
:105690000CFB02320C460120A8E7002301340593DD
:1056A00019464FF00A0C204610F8012B303A092A0F
:1056B00003D9002BC6D00591C4E70CFB0121044699
:1056C0000123F0E703AB00932A460E4B04A93846AA
:1056D000AFF30080421C0646D6D1AB895B063FF58E
:1056E0002DAF09982CE703AB00932A46054B04A97C
:1056F000384600F079F8EDE75C5B0008665B00086F
:10570000000000005D540008625B00082DE9F047CE
:10571000164698468A680B69DDF820909342B8BF18
:105720001346336091F8432007460C460AB1013313
:1057300033602368990642BF3368023333602568BB
:1057400015F0060506D104F1190AE36832689B1AC0
:10575000AB4226DC94F843302268003B18BF01239B
:1057600092062BD404F1430241463846C847013023
:105770001ED02368226903F00603042B02BFE568EC
:105780003368ED1AA3680CBF25EAE575002593423E
:10579000C4BF9B1AED1800261A34B5421AD1002056
:1057A00008E00123524641463846C847013003D13C
:1057B0004FF0FF30BDE8F0870135C6E7E1185A1C0D
:1057C000302081F84300224494F8451082F84310B9
:1057D0000233C7E70123224641463846C847013015
:1057E000E6D00136D9E700002DE9FF470F7E0C9E79
:1057F000782F914680460C469A4601F1430207D81D
:10580000622F0AD8002F00F0D180582F00F0B88006
:1058100004F1420684F842703AE0A7F16303152BC5
:10582000F6D801A151F823F08158000895580008D6
:1058300011580008115800081158000811580008A4
:105840009558000811580008115800081158000810
:105850001158000893590008BF5800084D59000816
:105860001158000811580008B559000811580008CF
:10587000BF58000811580008115800085559000871
:1058800033681A1D1B68326004F1420684F8423006
:1058900001239CE033682068191D3160060601D59C
:1058A0001D6803E04506FBD5B3F90050002D03DA6F
:1058B0002D236D4284F8433058480A2311E02168B3
:1058C0003368080653F8045B02D4490648BFADB2FA
:1058D0006F2F5248336014BF0A230823002184F835
:1058E00043106668A660002E05DB21682E4321F078
:1058F000040121604BD01646B5FBF3F103FB1157B1
:10590000C75D06F8017D2F46BB420D46F4D9082B32
:105910000BD12368DF0708D5236961689942DEBF90
:10592000302306F8013C06F1FF36921B2261CDF8C8
:1059300000A04B4603AA21464046FFF7E7FE013090
:105940004AD14FF0FF3004B0BDE8F087236843F040
:10595000200323603248782784F845702368316833
:105960001F0651F8045B02D45F0648BFADB2316038
:10597000D90744BF43F0200323601DB11023ADE7D6
:105980002648E9E7236823F020032360F6E716465C
:10599000BDE7336825686169181D30602E061B68F5
:1059A00001D5196002E06806FBD519800023236148
:1059B0001646BCE733681A1D32601E686268002113
:1059C0003046FAF70DFC08B1801B60606368236104
:1059D000002384F84330AAE723693246494640460B
:1059E000D0470130ADD023689B0713D4E068039BF8
:1059F0009842B8BF1846A6E70123324649464046BA
:105A0000D04701309DD00135E36803995B1AAB4262
:105A1000F2DCEBE7002504F11906F5E76D5B000801
:105A20007E5B0008884210B501EB020402D9844273
:105A3000234607D8431EA14208D011F8012B03F8D2
:105A4000012FF8E7024401468A4200D110BD13F845
:105A5000014D02F8014DF7E738B5064D0023044625
:105A600008462B60FBF7BAF8431C02D12B6803B140
:105A7000236038BDB80200200A44914200F1FF3390
:105A800000D1704710B511F8014B03F8014F914256
:105A9000F9D110BD2DE9F041074614460D4621B954
:105AA000BDE8F0411146FFF74DBC2AB9FFF7DEFB18
:105AB00025462846BDE8F08100F01AF884420646E3
:105AC00002D8B4EB500FF4D821463846FFF73AFC21
:105AD000804608B94546ECE7B4422246294628BF2D
